{
  "abi": [
    {
      "type": "function",
      "name": "read",
      "inputs": [],
      "outputs": [
        {
          "name": "",
          "type": "string",
          "internalType": "string"
        }
      ],
      "stateMutability": "view"
    },
    {
      "type": "function",
      "name": "write",
      "inputs": [
        {
          "name": "newMessage",
          "type": "string",
          "internalType": "string"
        }
      ],
      "outputs": [],
      "stateMutability": "nonpayable"
    }
  ],
  "bytecode": {
    "object": "0x60c0604052600d60809081526c48656c6c6f2c20776f726c642160981b60a05260009061002c90826100e0565b5034801561003957600080fd5b5061019f565b634e487b7160e01b600052604160045260246000fd5b600181811c9082168061006957607f821691505b60208210810361008957634e487b7160e01b600052602260045260246000fd5b50919050565b601f8211156100db576000816000526020600020601f850160051c810160208610156100b85750805b601f850160051c820191505b818110156100d7578281556001016100c4565b5050505b505050565b81516001600160401b038111156100f9576100f961003f565b61010d816101078454610055565b8461008f565b602080601f831160018114610142576000841561012a5750858301515b600019600386901b1c1916600185901b1785556100d7565b600085815260208120601f198616915b8281101561017157888601518255948401946001909101908401610152565b508582101561018f5787850151600019600388901b60f8161c191681555b5050505050600190811b01905550565b6103a7806101ae6000396000f3fe608060405234801561001057600080fd5b50600436106100365760003560e01c806357de26a41461003b578063ebaac77114610059575b600080fd5b61004361006e565b6040516100509190610110565b60405180910390f35b61006c610067366004610175565b610100565b005b60606000805461007d90610226565b80601f01602080910402602001604051908101604052809291908181526020018280546100a990610226565b80156100f65780601f106100cb576101008083540402835291602001916100f6565b820191906000526020600020905b8154815290600101906020018083116100d957829003601f168201915b5050505050905090565b600061010c82826102b1565b5050565b60006020808352835180602085015260005b8181101561013e57858101830151858201604001528201610122565b506000604082860101526040601f19601f8301168501019250505092915050565b634e487b7160e01b600052604160045260246000fd5b60006020828403121561018757600080fd5b813567ffffffffffffffff8082111561019f57600080fd5b818401915084601f8301126101b357600080fd5b8135818111156101c5576101c561015f565b604051601f8201601f19908116603f011681019083821181831017156101ed576101ed61015f565b8160405282815287602084870101111561020657600080fd5b826020860160208301376000928101602001929092525095945050505050565b600181811c9082168061023a57607f821691505b60208210810361025a57634e487b7160e01b600052602260045260246000fd5b50919050565b601f8211156102ac576000816000526020600020601f850160051c810160208610156102895750805b601f850160051c820191505b818110156102a857828155600101610295565b5050505b505050565b815167ffffffffffffffff8111156102cb576102cb61015f565b6102df816102d98454610226565b84610260565b602080601f83116001811461031457600084156102fc5750858301515b600019600386901b1c1916600185901b1785556102a8565b600085815260208120601f198616915b8281101561034357888601518255948401946001909101908401610324565b50858210156103615787850151600019600388901b60f8161c191681555b5050505050600190811b0190555056fea2646970667358221220091b2a9416fa281de4b91b92679a3d9f11cc6081b91403adb4e64bc83a6cb7b364736f6c63430008180033",
    "linkReferences": {}
  },
  "methodIdentifiers": {
    "read()": "57de26a4",
    "write(string)": "ebaac771"
  },
  "id": 25
}